{
  "_format": "hh-sol-artifact-1",
  "contractName": "VRFv2SubscriptionManager",
  "sourceName": "contracts/VRF.sol",
  "abi": [
    {
      "inputs": [],
      "stateMutability": "nonpayable",
      "type": "constructor"
    },
    {
      "inputs": [
        {
          "internalType": "address",
          "name": "have",
          "type": "address"
        },
        {
          "internalType": "address",
          "name": "want",
          "type": "address"
        }
      ],
      "name": "OnlyCoordinatorCanFulfill",
      "type": "error"
    },
    {
      "inputs": [
        {
          "internalType": "address",
          "name": "consumerAddress",
          "type": "address"
        }
      ],
      "name": "addConsumer",
      "outputs": [],
      "stateMutability": "nonpayable",
      "type": "function"
    },
    {
      "inputs": [
        {
          "internalType": "address",
          "name": "receivingWallet",
          "type": "address"
        }
      ],
      "name": "cancelSubscription",
      "outputs": [],
      "stateMutability": "nonpayable",
      "type": "function"
    },
    {
      "inputs": [
        {
          "internalType": "uint256",
          "name": "requestId",
          "type": "uint256"
        },
        {
          "internalType": "uint256[]",
          "name": "randomWords",
          "type": "uint256[]"
        }
      ],
      "name": "rawFulfillRandomWords",
      "outputs": [],
      "stateMutability": "nonpayable",
      "type": "function"
    },
    {
      "inputs": [
        {
          "internalType": "address",
          "name": "consumerAddress",
          "type": "address"
        }
      ],
      "name": "removeConsumer",
      "outputs": [],
      "stateMutability": "nonpayable",
      "type": "function"
    },
    {
      "inputs": [],
      "name": "requestRandomWords",
      "outputs": [],
      "stateMutability": "nonpayable",
      "type": "function"
    },
    {
      "inputs": [],
      "name": "s_randomRange",
      "outputs": [
        {
          "internalType": "uint256",
          "name": "",
          "type": "uint256"
        }
      ],
      "stateMutability": "view",
      "type": "function"
    },
    {
      "inputs": [
        {
          "internalType": "uint256",
          "name": "",
          "type": "uint256"
        }
      ],
      "name": "s_randomWords",
      "outputs": [
        {
          "internalType": "uint256",
          "name": "",
          "type": "uint256"
        }
      ],
      "stateMutability": "view",
      "type": "function"
    },
    {
      "inputs": [],
      "name": "s_requestId",
      "outputs": [
        {
          "internalType": "uint256",
          "name": "",
          "type": "uint256"
        }
      ],
      "stateMutability": "view",
      "type": "function"
    },
    {
      "inputs": [],
      "name": "s_subscriptionId",
      "outputs": [
        {
          "internalType": "uint64",
          "name": "",
          "type": "uint64"
        }
      ],
      "stateMutability": "view",
      "type": "function"
    },
    {
      "inputs": [
        {
          "internalType": "uint256",
          "name": "amount",
          "type": "uint256"
        }
      ],
      "name": "topUpSubscription",
      "outputs": [],
      "stateMutability": "nonpayable",
      "type": "function"
    },
    {
      "inputs": [
        {
          "internalType": "uint256",
          "name": "amount",
          "type": "uint256"
        },
        {
          "internalType": "address",
          "name": "to",
          "type": "address"
        }
      ],
      "name": "withdraw",
      "outputs": [],
      "stateMutability": "nonpayable",
      "type": "function"
    }
  ],
  "bytecode": "0x60a0604052738103b0a8a00be2ddc778e6e7eaa21791cd364625600260006101000a81548173ffffffffffffffffffffffffffffffffffffffff021916908373ffffffffffffffffffffffffffffffffffffffff16021790555073779877a7b0d9e8603169ddbd7836e478b4624789600360006101000a81548173ffffffffffffffffffffffffffffffffffffffff021916908373ffffffffffffffffffffffffffffffffffffffff1602179055507f474e34a077df58807dbe9c96d3c009b23b3c6d0cce433e59bbf5b34f823bc56c60001b600455620186a0600560006101000a81548163ffffffff021916908363ffffffff1602179055506003600560046101000a81548161ffff021916908361ffff1602179055506002600560066101000a81548163ffffffff021916908363ffffffff1602179055503480156200014657600080fd5b50600260009054906101000a900473ffffffffffffffffffffffffffffffffffffffff168073ffffffffffffffffffffffffffffffffffffffff1660808173ffffffffffffffffffffffffffffffffffffffff168152505050600260009054906101000a900473ffffffffffffffffffffffffffffffffffffffff166000806101000a81548173ffffffffffffffffffffffffffffffffffffffff021916908373ffffffffffffffffffffffffffffffffffffffff160217905550600360009054906101000a900473ffffffffffffffffffffffffffffffffffffffff16600160006101000a81548173ffffffffffffffffffffffffffffffffffffffff021916908373ffffffffffffffffffffffffffffffffffffffff16021790555033600960086101000a81548173ffffffffffffffffffffffffffffffffffffffff021916908373ffffffffffffffffffffffffffffffffffffffff160217905550620002b5620002bb60201b60201c565b6200057a565b600960089054906101000a900473ffffffffffffffffffffffffffffffffffffffff1673ffffffffffffffffffffffffffffffffffffffff163373ffffffffffffffffffffffffffffffffffffffff16146200031657600080fd5b60008054906101000a900473ffffffffffffffffffffffffffffffffffffffff1673ffffffffffffffffffffffffffffffffffffffff1663a21a23e46040518163ffffffff1660e01b81526004016020604051808303816000875af115801562000384573d6000803e3d6000fd5b505050506040513d601f19601f82011682018060405250810190620003aa9190620004c5565b600960006101000a81548167ffffffffffffffff021916908367ffffffffffffffff16021790555060008054906101000a900473ffffffffffffffffffffffffffffffffffffffff1673ffffffffffffffffffffffffffffffffffffffff16637341c10c600960009054906101000a900467ffffffffffffffff16306040518363ffffffff1660e01b8152600401620004459291906200054d565b600060405180830381600087803b1580156200046057600080fd5b505af115801562000475573d6000803e3d6000fd5b50505050565b600080fd5b600067ffffffffffffffff82169050919050565b6200049f8162000480565b8114620004ab57600080fd5b50565b600081519050620004bf8162000494565b92915050565b600060208284031215620004de57620004dd6200047b565b5b6000620004ee84828501620004ae565b91505092915050565b620005028162000480565b82525050565b600073ffffffffffffffffffffffffffffffffffffffff82169050919050565b6000620005358262000508565b9050919050565b620005478162000528565b82525050565b6000604082019050620005646000830185620004f7565b6200057360208301846200053c565b9392505050565b60805161111e6200059d600039600081816104ea015261053e015261111e6000f3fe608060405234801561001057600080fd5b50600436106100a85760003560e01c806386850e931161007157806386850e931461013b5780638ac000211461015757806393d81d5814610175578063e0c8628914610191578063e89e106a1461019b578063f6eaffc8146101b9576100a8565b8062f714ce146100ad5780630e27e3df146100c9578063112940f9146100e55780631fe543e3146101015780635158e57c1461011d575b600080fd5b6100c760048036038101906100c29190610aa9565b6101e9565b005b6100e360048036038101906100de9190610ae9565b6102e8565b005b6100ff60048036038101906100fa9190610ae9565b6103e8565b005b61011b60048036038101906101169190610c6f565b6104e8565b005b6101256105a8565b6040516101329190610cda565b60405180910390f35b61015560048036038101906101509190610cf5565b6105ae565b005b61015f610703565b60405161016c9190610d45565b60405180910390f35b61018f600480360381019061018a9190610ae9565b61071d565b005b610199610847565b005b6101a3610999565b6040516101b09190610cda565b60405180910390f35b6101d360048036038101906101ce9190610cf5565b61099f565b6040516101e09190610cda565b60405180910390f35b600960089054906101000a900473ffffffffffffffffffffffffffffffffffffffff1673ffffffffffffffffffffffffffffffffffffffff163373ffffffffffffffffffffffffffffffffffffffff161461024357600080fd5b600160009054906101000a900473ffffffffffffffffffffffffffffffffffffffff1673ffffffffffffffffffffffffffffffffffffffff1663a9059cbb82846040518363ffffffff1660e01b81526004016102a0929190610d6f565b6020604051808303816000875af11580156102bf573d6000803e3d6000fd5b505050506040513d601f19601f820116820180604052508101906102e39190610dd0565b505050565b600960089054906101000a900473ffffffffffffffffffffffffffffffffffffffff1673ffffffffffffffffffffffffffffffffffffffff163373ffffffffffffffffffffffffffffffffffffffff161461034257600080fd5b60008054906101000a900473ffffffffffffffffffffffffffffffffffffffff1673ffffffffffffffffffffffffffffffffffffffff16639f87fad7600960009054906101000a900467ffffffffffffffff16836040518363ffffffff1660e01b81526004016103b3929190610dfd565b600060405180830381600087803b1580156103cd57600080fd5b505af11580156103e1573d6000803e3d6000fd5b5050505050565b600960089054906101000a900473ffffffffffffffffffffffffffffffffffffffff1673ffffffffffffffffffffffffffffffffffffffff163373ffffffffffffffffffffffffffffffffffffffff161461044257600080fd5b60008054906101000a900473ffffffffffffffffffffffffffffffffffffffff1673ffffffffffffffffffffffffffffffffffffffff16637341c10c600960009054906101000a900467ffffffffffffffff16836040518363ffffffff1660e01b81526004016104b3929190610dfd565b600060405180830381600087803b1580156104cd57600080fd5b505af11580156104e1573d6000803e3d6000fd5b5050505050565b7f000000000000000000000000000000000000000000000000000000000000000073ffffffffffffffffffffffffffffffffffffffff163373ffffffffffffffffffffffffffffffffffffffff161461059a57337f00000000000000000000000000000000000000000000000000000000000000006040517f1cf993f4000000000000000000000000000000000000000000000000000000008152600401610591929190610e26565b60405180910390fd5b6105a482826109c3565b5050565b60075481565b600960089054906101000a900473ffffffffffffffffffffffffffffffffffffffff1673ffffffffffffffffffffffffffffffffffffffff163373ffffffffffffffffffffffffffffffffffffffff161461060857600080fd5b600160009054906101000a900473ffffffffffffffffffffffffffffffffffffffff1673ffffffffffffffffffffffffffffffffffffffff16634000aea060008054906101000a900473ffffffffffffffffffffffffffffffffffffffff1683600960009054906101000a900467ffffffffffffffff1660405160200161068f9190610d45565b6040516020818303038152906040526040518463ffffffff1660e01b81526004016106bc93929190610ece565b6020604051808303816000875af11580156106db573d6000803e3d6000fd5b505050506040513d601f19601f820116820180604052508101906106ff9190610dd0565b5050565b600960009054906101000a900467ffffffffffffffff1681565b600960089054906101000a900473ffffffffffffffffffffffffffffffffffffffff1673ffffffffffffffffffffffffffffffffffffffff163373ffffffffffffffffffffffffffffffffffffffff161461077757600080fd5b60008054906101000a900473ffffffffffffffffffffffffffffffffffffffff1673ffffffffffffffffffffffffffffffffffffffff1663d7ae1d30600960009054906101000a900467ffffffffffffffff16836040518363ffffffff1660e01b81526004016107e8929190610dfd565b600060405180830381600087803b15801561080257600080fd5b505af1158015610816573d6000803e3d6000fd5b505050506000600960006101000a81548167ffffffffffffffff021916908367ffffffffffffffff16021790555050565b600960089054906101000a900473ffffffffffffffffffffffffffffffffffffffff1673ffffffffffffffffffffffffffffffffffffffff163373ffffffffffffffffffffffffffffffffffffffff16146108a157600080fd5b60008054906101000a900473ffffffffffffffffffffffffffffffffffffffff1673ffffffffffffffffffffffffffffffffffffffff16635d3b1d30600454600960009054906101000a900467ffffffffffffffff16600560049054906101000a900461ffff16600560009054906101000a900463ffffffff16600560069054906101000a900463ffffffff166040518663ffffffff1660e01b815260040161094e959493929190610f61565b6020604051808303816000875af115801561096d573d6000803e3d6000fd5b505050506040513d601f19601f820116820180604052508101906109919190610fc9565b600881905550565b60085481565b600681815481106109af57600080fd5b906000526020600020016000915090505481565b60016006826000815181106109db576109da610ff6565b5b60200260200101516109ed9190611054565b6109f791906110b4565b6007819055505050565b6000604051905090565b600080fd5b600080fd5b6000819050919050565b610a2881610a15565b8114610a3357600080fd5b50565b600081359050610a4581610a1f565b92915050565b600073ffffffffffffffffffffffffffffffffffffffff82169050919050565b6000610a7682610a4b565b9050919050565b610a8681610a6b565b8114610a9157600080fd5b50565b600081359050610aa381610a7d565b92915050565b60008060408385031215610ac057610abf610a0b565b5b6000610ace85828601610a36565b9250506020610adf85828601610a94565b9150509250929050565b600060208284031215610aff57610afe610a0b565b5b6000610b0d84828501610a94565b91505092915050565b600080fd5b6000601f19601f8301169050919050565b7f4e487b7100000000000000000000000000000000000000000000000000000000600052604160045260246000fd5b610b6482610b1b565b810181811067ffffffffffffffff82111715610b8357610b82610b2c565b5b80604052505050565b6000610b96610a01565b9050610ba28282610b5b565b919050565b600067ffffffffffffffff821115610bc257610bc1610b2c565b5b602082029050602081019050919050565b600080fd5b6000610beb610be684610ba7565b610b8c565b90508083825260208201905060208402830185811115610c0e57610c0d610bd3565b5b835b81811015610c375780610c238882610a36565b845260208401935050602081019050610c10565b5050509392505050565b600082601f830112610c5657610c55610b16565b5b8135610c66848260208601610bd8565b91505092915050565b60008060408385031215610c8657610c85610a0b565b5b6000610c9485828601610a36565b925050602083013567ffffffffffffffff811115610cb557610cb4610a10565b5b610cc185828601610c41565b9150509250929050565b610cd481610a15565b82525050565b6000602082019050610cef6000830184610ccb565b92915050565b600060208284031215610d0b57610d0a610a0b565b5b6000610d1984828501610a36565b91505092915050565b600067ffffffffffffffff82169050919050565b610d3f81610d22565b82525050565b6000602082019050610d5a6000830184610d36565b92915050565b610d6981610a6b565b82525050565b6000604082019050610d846000830185610d60565b610d916020830184610ccb565b9392505050565b60008115159050919050565b610dad81610d98565b8114610db857600080fd5b50565b600081519050610dca81610da4565b92915050565b600060208284031215610de657610de5610a0b565b5b6000610df484828501610dbb565b91505092915050565b6000604082019050610e126000830185610d36565b610e1f6020830184610d60565b9392505050565b6000604082019050610e3b6000830185610d60565b610e486020830184610d60565b9392505050565b600081519050919050565b600082825260208201905092915050565b60005b83811015610e89578082015181840152602081019050610e6e565b60008484015250505050565b6000610ea082610e4f565b610eaa8185610e5a565b9350610eba818560208601610e6b565b610ec381610b1b565b840191505092915050565b6000606082019050610ee36000830186610d60565b610ef06020830185610ccb565b8181036040830152610f028184610e95565b9050949350505050565b6000819050919050565b610f1f81610f0c565b82525050565b600061ffff82169050919050565b610f3c81610f25565b82525050565b600063ffffffff82169050919050565b610f5b81610f42565b82525050565b600060a082019050610f766000830188610f16565b610f836020830187610d36565b610f906040830186610f33565b610f9d6060830185610f52565b610faa6080830184610f52565b9695505050505050565b600081519050610fc381610a1f565b92915050565b600060208284031215610fdf57610fde610a0b565b5b6000610fed84828501610fb4565b91505092915050565b7f4e487b7100000000000000000000000000000000000000000000000000000000600052603260045260246000fd5b7f4e487b7100000000000000000000000000000000000000000000000000000000600052601260045260246000fd5b600061105f82610a15565b915061106a83610a15565b92508261107a57611079611025565b5b828206905092915050565b7f4e487b7100000000000000000000000000000000000000000000000000000000600052601160045260246000fd5b60006110bf82610a15565b91506110ca83610a15565b92508282019050808211156110e2576110e1611085565b5b9291505056fea264697066735822122088a299ff6cd6cc59bdd81ba2bfdee155fad05b0eb2fcddd41a9028883a3364ff64736f6c63430008170033",
  "linkReferences": {},
  "deployedLinkReferences": {}
}