{
  "_format": "hh-sol-artifact-1",
  "contractName": "OddEvenGame",
  "sourceName": "contracts/OddEven.sol",
  "abi": [
    {
      "inputs": [
        {
          "internalType": "uint64",
          "name": "subscriptionId",
          "type": "uint64"
        }
      ],
      "stateMutability": "nonpayable",
      "type": "constructor"
    },
    {
      "inputs": [
        {
          "internalType": "address",
          "name": "have",
          "type": "address"
        },
        {
          "internalType": "address",
          "name": "want",
          "type": "address"
        }
      ],
      "name": "OnlyCoordinatorCanFulfill",
      "type": "error"
    },
    {
      "inputs": [
        {
          "internalType": "uint256",
          "name": "_requestId",
          "type": "uint256"
        }
      ],
      "name": "getRequestStatus",
      "outputs": [
        {
          "internalType": "bool",
          "name": "fulfilled",
          "type": "bool"
        },
        {
          "internalType": "uint256[]",
          "name": "randomWords",
          "type": "uint256[]"
        }
      ],
      "stateMutability": "view",
      "type": "function"
    },
    {
      "inputs": [],
      "name": "get_randomwords",
      "outputs": [
        {
          "internalType": "uint256",
          "name": "",
          "type": "uint256"
        }
      ],
      "stateMutability": "view",
      "type": "function"
    },
    {
      "inputs": [],
      "name": "get_requestId",
      "outputs": [
        {
          "internalType": "uint256",
          "name": "",
          "type": "uint256"
        }
      ],
      "stateMutability": "view",
      "type": "function"
    },
    {
      "inputs": [],
      "name": "get_subscriptionId",
      "outputs": [
        {
          "internalType": "uint64",
          "name": "",
          "type": "uint64"
        }
      ],
      "stateMutability": "view",
      "type": "function"
    },
    {
      "inputs": [],
      "name": "lastRequestId",
      "outputs": [
        {
          "internalType": "uint256",
          "name": "",
          "type": "uint256"
        }
      ],
      "stateMutability": "view",
      "type": "function"
    },
    {
      "inputs": [
        {
          "internalType": "uint256",
          "name": "requestId",
          "type": "uint256"
        },
        {
          "internalType": "uint256[]",
          "name": "randomWords",
          "type": "uint256[]"
        }
      ],
      "name": "rawFulfillRandomWords",
      "outputs": [],
      "stateMutability": "nonpayable",
      "type": "function"
    },
    {
      "inputs": [
        {
          "internalType": "uint256",
          "name": "",
          "type": "uint256"
        }
      ],
      "name": "requestIds",
      "outputs": [
        {
          "internalType": "uint256",
          "name": "",
          "type": "uint256"
        }
      ],
      "stateMutability": "view",
      "type": "function"
    },
    {
      "inputs": [],
      "name": "requestRandomWords",
      "outputs": [
        {
          "internalType": "uint256",
          "name": "requestId",
          "type": "uint256"
        }
      ],
      "stateMutability": "nonpayable",
      "type": "function"
    },
    {
      "inputs": [],
      "name": "s_randomRange",
      "outputs": [
        {
          "internalType": "uint256",
          "name": "",
          "type": "uint256"
        }
      ],
      "stateMutability": "view",
      "type": "function"
    },
    {
      "inputs": [
        {
          "internalType": "uint256",
          "name": "",
          "type": "uint256"
        }
      ],
      "name": "s_randomWords",
      "outputs": [
        {
          "internalType": "uint256",
          "name": "",
          "type": "uint256"
        }
      ],
      "stateMutability": "view",
      "type": "function"
    },
    {
      "inputs": [],
      "name": "s_requestId",
      "outputs": [
        {
          "internalType": "uint256",
          "name": "",
          "type": "uint256"
        }
      ],
      "stateMutability": "view",
      "type": "function"
    },
    {
      "inputs": [
        {
          "internalType": "uint256",
          "name": "",
          "type": "uint256"
        }
      ],
      "name": "s_requests",
      "outputs": [
        {
          "internalType": "bool",
          "name": "fulfilled",
          "type": "bool"
        },
        {
          "internalType": "bool",
          "name": "exists",
          "type": "bool"
        }
      ],
      "stateMutability": "view",
      "type": "function"
    },
    {
      "inputs": [],
      "name": "s_subscriptionId",
      "outputs": [
        {
          "internalType": "uint64",
          "name": "",
          "type": "uint64"
        }
      ],
      "stateMutability": "view",
      "type": "function"
    }
  ],
  "bytecode": "0x60a0604052738103b0a8a00be2ddc778e6e7eaa21791cd364625600160006101000a81548173ffffffffffffffffffffffffffffffffffffffff021916908373ffffffffffffffffffffffffffffffffffffffff16021790555073779877a7b0d9e8603169ddbd7836e478b4624789600260006101000a81548173ffffffffffffffffffffffffffffffffffffffff021916908373ffffffffffffffffffffffffffffffffffffffff1602179055507f474e34a077df58807dbe9c96d3c009b23b3c6d0cce433e59bbf5b34f823bc56c60001b600355620186a0600460006101000a81548163ffffffff021916908363ffffffff16021790555060036004806101000a81548161ffff021916908361ffff1602179055506001600460066101000a81548163ffffffff021916908363ffffffff16021790555034801561014457600080fd5b50604051611135380380611135833981810160405281019061016691906102d4565b600160009054906101000a900473ffffffffffffffffffffffffffffffffffffffff168073ffffffffffffffffffffffffffffffffffffffff1660808173ffffffffffffffffffffffffffffffffffffffff168152505050600160009054906101000a900473ffffffffffffffffffffffffffffffffffffffff166000806101000a81548173ffffffffffffffffffffffffffffffffffffffff021916908373ffffffffffffffffffffffffffffffffffffffff160217905550336008806101000a81548173ffffffffffffffffffffffffffffffffffffffff021916908373ffffffffffffffffffffffffffffffffffffffff16021790555080600860006101000a81548167ffffffffffffffff021916908367ffffffffffffffff16021790555050610301565b600080fd5b600067ffffffffffffffff82169050919050565b6102b181610294565b81146102bc57600080fd5b50565b6000815190506102ce816102a8565b92915050565b6000602082840312156102ea576102e961028f565b5b60006102f8848285016102bf565b91505092915050565b608051610e12610323600039600081816102a401526102f80152610e126000f3fe608060405234801561001057600080fd5b50600436106100cf5760003560e01c8063cf7532b81161008c578063e0c8628911610066578063e0c8628914610218578063e89e106a14610236578063f6eaffc814610254578063fc2a88c314610284576100cf565b8063cf7532b8146101ab578063d8a4676f146101c9578063d91a07ee146101fa576100cf565b80631fe543e3146100d45780635158e57c146100f05780636a82a9631461010e5780638796ba8c1461012c5780638ac000211461015c578063a168fa891461017a575b600080fd5b6100ee60048036038101906100e991906109b9565b6102a2565b005b6100f8610362565b6040516101059190610a24565b60405180910390f35b610116610368565b6040516101239190610a62565b60405180910390f35b61014660048036038101906101419190610a7d565b610386565b6040516101539190610a24565b60405180910390f35b6101646103aa565b6040516101719190610a62565b60405180910390f35b610194600480360381019061018f9190610a7d565b6103c4565b6040516101a2929190610ac5565b60405180910390f35b6101b3610402565b6040516101c09190610a24565b60405180910390f35b6101e360048036038101906101de9190610a7d565b61040c565b6040516101f1929190610bac565b60405180910390f35b610202610537565b60405161020f9190610a24565b60405180910390f35b61022061055e565b60405161022d9190610a24565b60405180910390f35b61023e610761565b60405161024b9190610a24565b60405180910390f35b61026e60048036038101906102699190610a7d565b610767565b60405161027b9190610a24565b60405180910390f35b61028c61078b565b6040516102999190610a24565b60405180910390f35b7f000000000000000000000000000000000000000000000000000000000000000073ffffffffffffffffffffffffffffffffffffffff163373ffffffffffffffffffffffffffffffffffffffff161461035457337f00000000000000000000000000000000000000000000000000000000000000006040517f1cf993f400000000000000000000000000000000000000000000000000000000815260040161034b929190610c1d565b60405180910390fd5b61035e8282610791565b5050565b60065481565b6000600860009054906101000a900467ffffffffffffffff16905090565b600a818154811061039657600080fd5b906000526020600020016000915090505481565b600860009054906101000a900467ffffffffffffffff1681565b60096020528060005260406000206000915090508060000160009054906101000a900460ff16908060000160019054906101000a900460ff16905082565b6000600754905090565b600060606009600084815260200190815260200160002060000160019054906101000a900460ff16610473576040517f08c379a000000000000000000000000000000000000000000000000000000000815260040161046a90610ca3565b60405180910390fd5b6000600960008581526020019081526020016000206040518060600160405290816000820160009054906101000a900460ff161515151581526020016000820160019054906101000a900460ff161515151581526020016001820180548060200260200160405190810160405280929190818152602001828054801561051857602002820191906000526020600020905b815481526020019060010190808311610504575b5050505050815250509050806000015181604001519250925050915091565b6000600560008154811061054e5761054d610cc3565b5b9060005260206000200154905090565b60008060009054906101000a900473ffffffffffffffffffffffffffffffffffffffff1673ffffffffffffffffffffffffffffffffffffffff16635d3b1d30600354600860009054906101000a900467ffffffffffffffff1660048054906101000a900461ffff16600460009054906101000a900463ffffffff16600460069054906101000a900463ffffffff166040518663ffffffff1660e01b815260040161060c959493929190610d47565b6020604051808303816000875af115801561062b573d6000803e3d6000fd5b505050506040513d601f19601f8201168201806040525081019061064f9190610daf565b90506040518060600160405280600015158152602001600115158152602001600067ffffffffffffffff81111561068957610688610876565b5b6040519080825280602002602001820160405280156106b75781602001602082028036833780820191505090505b508152506009600083815260200190815260200160002060008201518160000160006101000a81548160ff02191690831515021790555060208201518160000160016101000a81548160ff021916908315150217905550604082015181600101908051906020019061072a9291906107ac565b50905050600a81908060018154018082558091505060019003906000526020600020016000909190919091505580600b8190555090565b60075481565b6005818154811061077757600080fd5b906000526020600020016000915090505481565b600b5481565b80600590805190602001906107a79291906107ac565b505050565b8280548282559060005260206000209081019282156107e8579160200282015b828111156107e75782518255916020019190600101906107cc565b5b5090506107f591906107f9565b5090565b5b808211156108125760008160009055506001016107fa565b5090565b6000604051905090565b600080fd5b600080fd5b6000819050919050565b61083d8161082a565b811461084857600080fd5b50565b60008135905061085a81610834565b92915050565b600080fd5b6000601f19601f8301169050919050565b7f4e487b7100000000000000000000000000000000000000000000000000000000600052604160045260246000fd5b6108ae82610865565b810181811067ffffffffffffffff821117156108cd576108cc610876565b5b80604052505050565b60006108e0610816565b90506108ec82826108a5565b919050565b600067ffffffffffffffff82111561090c5761090b610876565b5b602082029050602081019050919050565b600080fd5b6000610935610930846108f1565b6108d6565b905080838252602082019050602084028301858111156109585761095761091d565b5b835b81811015610981578061096d888261084b565b84526020840193505060208101905061095a565b5050509392505050565b600082601f8301126109a05761099f610860565b5b81356109b0848260208601610922565b91505092915050565b600080604083850312156109d0576109cf610820565b5b60006109de8582860161084b565b925050602083013567ffffffffffffffff8111156109ff576109fe610825565b5b610a0b8582860161098b565b9150509250929050565b610a1e8161082a565b82525050565b6000602082019050610a396000830184610a15565b92915050565b600067ffffffffffffffff82169050919050565b610a5c81610a3f565b82525050565b6000602082019050610a776000830184610a53565b92915050565b600060208284031215610a9357610a92610820565b5b6000610aa18482850161084b565b91505092915050565b60008115159050919050565b610abf81610aaa565b82525050565b6000604082019050610ada6000830185610ab6565b610ae76020830184610ab6565b9392505050565b600081519050919050565b600082825260208201905092915050565b6000819050602082019050919050565b610b238161082a565b82525050565b6000610b358383610b1a565b60208301905092915050565b6000602082019050919050565b6000610b5982610aee565b610b638185610af9565b9350610b6e83610b0a565b8060005b83811015610b9f578151610b868882610b29565b9750610b9183610b41565b925050600181019050610b72565b5085935050505092915050565b6000604082019050610bc16000830185610ab6565b8181036020830152610bd38184610b4e565b90509392505050565b600073ffffffffffffffffffffffffffffffffffffffff82169050919050565b6000610c0782610bdc565b9050919050565b610c1781610bfc565b82525050565b6000604082019050610c326000830185610c0e565b610c3f6020830184610c0e565b9392505050565b600082825260208201905092915050565b7f72657175657374206e6f7420666f756e64000000000000000000000000000000600082015250565b6000610c8d601183610c46565b9150610c9882610c57565b602082019050919050565b60006020820190508181036000830152610cbc81610c80565b9050919050565b7f4e487b7100000000000000000000000000000000000000000000000000000000600052603260045260246000fd5b6000819050919050565b610d0581610cf2565b82525050565b600061ffff82169050919050565b610d2281610d0b565b82525050565b600063ffffffff82169050919050565b610d4181610d28565b82525050565b600060a082019050610d5c6000830188610cfc565b610d696020830187610a53565b610d766040830186610d19565b610d836060830185610d38565b610d906080830184610d38565b9695505050505050565b600081519050610da981610834565b92915050565b600060208284031215610dc557610dc4610820565b5b6000610dd384828501610d9a565b9150509291505056fea26469706673582212200c839a42b2fa6512ccb34ab08f0042fa5d6b8fc0ec78da9ea71a4aa0c12213a664736f6c63430008170033",
  "linkReferences": {},
  "deployedLinkReferences": {}
}