{
  "_format": "hh-sol-artifact-1",
  "contractName": "DiceGame",
  "sourceName": "contracts/Dice.sol",
  "abi": [
    {
      "inputs": [
        {
          "internalType": "uint64",
          "name": "subscriptionId",
          "type": "uint64"
        }
      ],
      "stateMutability": "nonpayable",
      "type": "constructor"
    },
    {
      "inputs": [
        {
          "internalType": "address",
          "name": "have",
          "type": "address"
        },
        {
          "internalType": "address",
          "name": "want",
          "type": "address"
        }
      ],
      "name": "OnlyCoordinatorCanFulfill",
      "type": "error"
    },
    {
      "inputs": [],
      "name": "getBalance",
      "outputs": [
        {
          "internalType": "uint256",
          "name": "",
          "type": "uint256"
        }
      ],
      "stateMutability": "view",
      "type": "function"
    },
    {
      "inputs": [],
      "name": "getRandomNumber",
      "outputs": [
        {
          "internalType": "uint256",
          "name": "requestId",
          "type": "uint256"
        }
      ],
      "stateMutability": "nonpayable",
      "type": "function"
    },
    {
      "inputs": [],
      "name": "owner",
      "outputs": [
        {
          "internalType": "address",
          "name": "",
          "type": "address"
        }
      ],
      "stateMutability": "view",
      "type": "function"
    },
    {
      "inputs": [],
      "name": "randomResult",
      "outputs": [
        {
          "internalType": "uint256",
          "name": "",
          "type": "uint256"
        }
      ],
      "stateMutability": "view",
      "type": "function"
    },
    {
      "inputs": [
        {
          "internalType": "uint256",
          "name": "requestId",
          "type": "uint256"
        },
        {
          "internalType": "uint256[]",
          "name": "randomWords",
          "type": "uint256[]"
        }
      ],
      "name": "rawFulfillRandomWords",
      "outputs": [],
      "stateMutability": "nonpayable",
      "type": "function"
    },
    {
      "inputs": [],
      "name": "s_subscriptionId",
      "outputs": [
        {
          "internalType": "uint64",
          "name": "",
          "type": "uint64"
        }
      ],
      "stateMutability": "view",
      "type": "function"
    }
  ],
  "bytecode": "0x60a0604052738103b0a8a00be2ddc778e6e7eaa21791cd364625600560006101000a81548173ffffffffffffffffffffffffffffffffffffffff021916908373ffffffffffffffffffffffffffffffffffffffff16021790555073779877a7b0d9e8603169ddbd7836e478b4624789600660006101000a81548173ffffffffffffffffffffffffffffffffffffffff021916908373ffffffffffffffffffffffffffffffffffffffff1602179055507f474e34a077df58807dbe9c96d3c009b23b3c6d0cce433e59bbf5b34f823bc56c60001b600755620186a0600860006101000a81548163ffffffff021916908363ffffffff1602179055506003600860046101000a81548161ffff021916908361ffff1602179055506001600860066101000a81548163ffffffff021916908363ffffffff16021790555034801561014557600080fd5b50604051610e02380380610e028339818101604052810190610167919061033a565b600560009054906101000a900473ffffffffffffffffffffffffffffffffffffffff168073ffffffffffffffffffffffffffffffffffffffff1660808173ffffffffffffffffffffffffffffffffffffffff168152505050600560009054906101000a900473ffffffffffffffffffffffffffffffffffffffff16600460006101000a81548173ffffffffffffffffffffffffffffffffffffffff021916908373ffffffffffffffffffffffffffffffffffffffff16021790555033600260006101000a81548173ffffffffffffffffffffffffffffffffffffffff021916908373ffffffffffffffffffffffffffffffffffffffff16021790555080600260146101000a81548167ffffffffffffffff021916908367ffffffffffffffff160217905550600660009054906101000a900473ffffffffffffffffffffffffffffffffffffffff16600360006101000a81548173ffffffffffffffffffffffffffffffffffffffff021916908373ffffffffffffffffffffffffffffffffffffffff16021790555050610367565b600080fd5b600067ffffffffffffffff82169050919050565b610317816102fa565b811461032257600080fd5b50565b6000815190506103348161030e565b92915050565b6000602082840312156103505761034f6102f5565b5b600061035e84828501610325565b91505092915050565b608051610a79610389600039600081816101be01526102120152610a796000f3fe608060405234801561001057600080fd5b50600436106100625760003560e01c806312065fe0146100675780631fe543e31461008557806342619f66146100a15780638ac00021146100bf5780638da5cb5b146100dd578063dbdff2c1146100fb575b600080fd5b61006f610119565b60405161007c91906104f1565b60405180910390f35b61009f600480360381019061009a91906106a5565b6101bc565b005b6100a961027c565b6040516100b691906104f1565b60405180910390f35b6100c7610282565b6040516100d49190610724565b60405180910390f35b6100e561029c565b6040516100f29190610780565b60405180910390f35b6101036102c2565b60405161011091906104f1565b60405180910390f35b6000600360009054906101000a900473ffffffffffffffffffffffffffffffffffffffff1673ffffffffffffffffffffffffffffffffffffffff166370a08231306040518263ffffffff1660e01b81526004016101769190610780565b602060405180830381865afa158015610193573d6000803e3d6000fd5b505050506040513d601f19601f820116820180604052508101906101b791906107b0565b905090565b7f000000000000000000000000000000000000000000000000000000000000000073ffffffffffffffffffffffffffffffffffffffff163373ffffffffffffffffffffffffffffffffffffffff161461026e57337f00000000000000000000000000000000000000000000000000000000000000006040517f1cf993f40000000000000000000000000000000000000000000000000000000081526004016102659291906107dd565b60405180910390fd5b610278828261049a565b5050565b60015481565b600260149054906101000a900467ffffffffffffffff1681565b600260009054906101000a900473ffffffffffffffffffffffffffffffffffffffff1681565b60008054600360009054906101000a900473ffffffffffffffffffffffffffffffffffffffff1673ffffffffffffffffffffffffffffffffffffffff166370a08231306040518263ffffffff1660e01b81526004016103219190610780565b602060405180830381865afa15801561033e573d6000803e3d6000fd5b505050506040513d601f19601f8201168201806040525081019061036291906107b0565b10156103a3576040517f08c379a000000000000000000000000000000000000000000000000000000000815260040161039a90610889565b60405180910390fd5b600460009054906101000a900473ffffffffffffffffffffffffffffffffffffffff1673ffffffffffffffffffffffffffffffffffffffff16635d3b1d30600754600260149054906101000a900467ffffffffffffffff16600860049054906101000a900461ffff16600860009054906101000a900463ffffffff16600860069054906101000a900463ffffffff166040518663ffffffff1660e01b81526004016104529594939291906108fe565b6020604051808303816000875af1158015610471573d6000803e3d6000fd5b505050506040513d601f19601f8201168201806040525081019061049591906107b0565b905090565b60016006826000815181106104b2576104b1610951565b5b60200260200101516104c491906109af565b6104ce9190610a0f565b6001819055505050565b6000819050919050565b6104eb816104d8565b82525050565b600060208201905061050660008301846104e2565b92915050565b6000604051905090565b600080fd5b600080fd5b610529816104d8565b811461053457600080fd5b50565b60008135905061054681610520565b92915050565b600080fd5b6000601f19601f8301169050919050565b7f4e487b7100000000000000000000000000000000000000000000000000000000600052604160045260246000fd5b61059a82610551565b810181811067ffffffffffffffff821117156105b9576105b8610562565b5b80604052505050565b60006105cc61050c565b90506105d88282610591565b919050565b600067ffffffffffffffff8211156105f8576105f7610562565b5b602082029050602081019050919050565b600080fd5b600061062161061c846105dd565b6105c2565b9050808382526020820190506020840283018581111561064457610643610609565b5b835b8181101561066d57806106598882610537565b845260208401935050602081019050610646565b5050509392505050565b600082601f83011261068c5761068b61054c565b5b813561069c84826020860161060e565b91505092915050565b600080604083850312156106bc576106bb610516565b5b60006106ca85828601610537565b925050602083013567ffffffffffffffff8111156106eb576106ea61051b565b5b6106f785828601610677565b9150509250929050565b600067ffffffffffffffff82169050919050565b61071e81610701565b82525050565b60006020820190506107396000830184610715565b92915050565b600073ffffffffffffffffffffffffffffffffffffffff82169050919050565b600061076a8261073f565b9050919050565b61077a8161075f565b82525050565b60006020820190506107956000830184610771565b92915050565b6000815190506107aa81610520565b92915050565b6000602082840312156107c6576107c5610516565b5b60006107d48482850161079b565b91505092915050565b60006040820190506107f26000830185610771565b6107ff6020830184610771565b9392505050565b600082825260208201905092915050565b7f4e6f7420656e6f756768204c494e4b202d2066696c6c20636f6e74726163742060008201527f7769746820666175636574000000000000000000000000000000000000000000602082015250565b6000610873602b83610806565b915061087e82610817565b604082019050919050565b600060208201905081810360008301526108a281610866565b9050919050565b6000819050919050565b6108bc816108a9565b82525050565b600061ffff82169050919050565b6108d9816108c2565b82525050565b600063ffffffff82169050919050565b6108f8816108df565b82525050565b600060a08201905061091360008301886108b3565b6109206020830187610715565b61092d60408301866108d0565b61093a60608301856108ef565b61094760808301846108ef565b9695505050505050565b7f4e487b7100000000000000000000000000000000000000000000000000000000600052603260045260246000fd5b7f4e487b7100000000000000000000000000000000000000000000000000000000600052601260045260246000fd5b60006109ba826104d8565b91506109c5836104d8565b9250826109d5576109d4610980565b5b828206905092915050565b7f4e487b7100000000000000000000000000000000000000000000000000000000600052601160045260246000fd5b6000610a1a826104d8565b9150610a25836104d8565b9250828201905080821115610a3d57610a3c6109e0565b5b9291505056fea2646970667358221220ecc4b7f40efca7034bed676fd8cf3d3c2f19d4c52239cc3cfb3eb4138501454b64736f6c63430008170033",
  "linkReferences": {},
  "deployedLinkReferences": {}
}